:020000040800F2
:10000000005000201D4800086548000865480008A9
:1000100065480008654800086548000800000000C1
:10002000000000000000000000000000654800081B
:10003000654800080000000065480008232E0008FD
:1000400065480008654800086548000865480008DC
:100050006548000865480008112F0008172F0008A0
:100060001D2F0008232F0008292F000865480008CD
:1000700065480008654800086548000865480008AC
:10008000654800086548000865480008B544000850
:10009000A944000865480008654800082F2F00089B
:1000A000654800089521000865480008A921000856
:1000B000AD210008C1210008D521000865480008CD
:1000C000654800086548000865480008654800085C
:1000D0006548000809370008213700083D37000847
:1000E000572F000865480008B944000800000000C8
:1000F0000000000000000000000000000000000000
:0C01000000000000000000005FF808F1A3
:10010C00034613F8012B002AFBD1181A013870474B
:10011C0010B5054C237833B9044B13B10448AFF335
:10012C0000800123237010BD5C0200200000000041
:10013C00E04C000808B5034B1BB103490348AFF36F
:10014C00008008BD0000000060020020E04C0008A8
:10015C007047000008B50146074804F042FB142024
:10016C0004F014FCB021044800F0A0F9BDE80840EC
:10017C00282004F00BBC00BF7802002008B5012138
:10018C00082004F06BFB0021082004F0C5FB4FF4A1
:10019C00967004F0FBFB0021082004F05FFBC820E4
:1001AC0004F0F4FB484800F0DEF84FF47A6004F0F9
:1001BC00EDFB8321444800F0FFF87221424800F027
:1001CC00FBF8642004F0E2FB3F4800F07BF94FF4AD
:1001DC007A7004F0DBFB3D48FFF7BCFF40F6B8300B
:1001EC0004F0D4FB3A48FFF7B5FF3A48FFF7B2FFEB
:1001FC003948FFF7AFFF3948FFF7ACFF3848FFF736
:10020C00A9FF3848FFF7A6FF3748FFF7A3FF374889
:10021C00FFF7A0FF3648FFF79DFF3648FFF79AFF20
:10022C003548FFF797FF3548FFF794FF3448FFF741
:10023C0091FF3448FFF78EFF3348FFF78BFF3348AD
:10024C00FFF788FF3248FFF785FF3248FFF782FF40
:10025C003148FFF77FFF3148FFF77CFF3048FFF74D
:10026C0079FF3048FFF776FF2F48FFF773FF2F48D1
:10027C00FFF770FF2E48FFF76DFF2E48FFF76AFF60
:10028C002D48FFF767FF2D48FFF764FF2C48FFF759
:10029C0061FF2C48FFF75EFF2B48FFF75BFF2B48F5
:1002AC00FFF758FF2A48FFF755FF2A48FFF752FF80
:1002BC002948FFF74FFF2948FFF74CFFBDE80840DE
:1002CC00014800F053B800BF78020020F84C000839
:1002DC00034D00084B4D0008654D0008CD4D00083E
:1002EC00F44D00081D4E0008454E00086F4E0008E6
:1002FC00B14E0008F24E0008334F0008714F000851
:10030C00AF4F0008F74F0008375000086E50000838
:10031C00B75000080051000861510008C251000894
:10032C000452000846520008FC52000861530008B1
:10033C00C25300082754000869540008AB54000845
:10034C0061550008A7550008C9550008EB55000871
:10035C00065600088A5600085F550008A05600088B
:10036C00002070477047002003F062BB002003F0B0
:10037C008BBB07B50B7868468DF800304B788DF841
:10038C0001308B788DF80230CB788DF803300B79F7
:10039C008DF804304B798DF805308B798DF806305B
:1003AC00CB7908218DF8073003F08EFB142004F074
:1003BC00EDFA03B05DF804FB872910B521D978312B
:1003CC00C9B2837A8B4216D0C37A8B4213D0037B8B
:1003DC008B4210D0437B8B420DD0837B8B420AD057
:1003EC00C37B8B4207D0002300F1090212F8014FA6
:1003FC000CBB0344997200F10801FFF7BAFF01200E
:10040C000FE00A0607D50123027A80398B4013438B
:10041C0000210372D5E70A4B595C19B901234360DB
:10042C00002010BD0B0641BF037A01F07F0143F0A1
:10043C0002030372C5E70133062BD7D1EEE700BFE9
:10044C0048570008872938B514D97831C9B2002427
:10045C0000F10A0300F1100219B11D788D4208BF9A
:10046C001C7001339342F7D100F10801FFF781FFB3
:10047C00012038BD0A0608D50122037A80398A404A
:10048C0023EA020300210372E1E7074B595C41B1F7
:10049C000B0641BF037A01F07F0123F002030372C4
:1004AC00D5E70846E5E700BF4857000870B5054694
:1004BC000E46FFF781FF044631462846FFF7C2FF80
:1004CC00204670BD002301464381C36001F8083FFC
:1004DC00FFF74FBF0022024B5A60024A1A60704766
:1004EC0078020020385700087047000038B50E4BD2
:1004FC0005461A784FF47A73B3FBF2F30B4A106883
:10050C00B0FBF3F000F08AF8044658B90F2D09D867
:10051C00024629464FF0FF3000F042F82046044BCB
:10052C001D6038BD0120FCE70000002024000020E5
:10053C0004000020074A08B51368032043F0100399
:10054C00136000F01BF80020FFF7D0FFFFF7CCFF83
:10055C00002008BD00200240034A044B11681B78A0
:10056C000B441360704700BF88020020000000207D
:10057C00014B1868704700BF88020020074903022E
:10058C00CA6803F4E06322F4E0621204120C134311
:10059C0043F0BF6343F40033CB60704700ED00E0E1
:1005AC00154B30B5DC68C4F30224C4F10703251DD8
:1005BC00042B28BF0423062D4FF0FF3594BF0024D5
:1005CC00033C05FA03F321EA0303A54022EA0502E2
:1005DC00A340002843EA0203ACBF00F16040074A85
:1005EC004FEA0313DBB2ABBF00F5614000F00F0024
:1005FC0080F80033135430BD00ED00E014ED00E042
:10060C00002807DB01234109034A00F01F00834047
:10061C0042F82130704700BF00E100E00138B0F132
:10062C00807F0BD24FF0E023F021054A586182F80D
:10063C0023100020072298611A617047012070472F
:10064C0000ED00E0002808DB01224309034900F01B
:10065C001F008240603341F82320704700E100E026
:10066C00704708B5FFF7FCFF08BD704710B504468E
:10067C0050B1437903F0FF0213B90271FFF7F5FF94
:10068C0001230020637110BD0120FCE790F82120AC
:10069C000346022A06D0042282630120002283F83A
:1006AC00202070470268C06B116821F00E011160A8
:1006BC00116821F00101116001211A6C01FA02F29A
:1006CC004260002083F82110E8E7000008B590F89C
:1006DC002130022B03D004238363012008BD03685F
:1006EC001A6822F00E021A601A6822F001021A60CF
:1006FC00174A93421FD0143293421ED014329342A5
:10070C001DD0143293421DD0143293421DD014329A
:10071C00934214BF4FF080734FF480130D4A536013
:10072C00012380F82130002380F82030436B03B183
:10073C0098470020D2E70123F0E71023EEE74FF4AF
:10074C008073EBE74FF48053E8E74FF48033E5E731
:10075C000800024000000240044A08B551690142F9
:10076C0002D0506102F0B8FB08BD00BF000401408C
:10077C00F8B50446E0B190F8913203F0FF021BB9D2
:10078C0080F8902203F0DEFD032384F891320023DD
:10079C002546637155F8040B01F085FD95E80E00B4
:1007AC00206801F070FD014628B1022384F89132D3
:1007BC0001252846F8BD206801F07FFD0028F4D102
:1007CC0002460127267904F11003C1B28E4203F1CF
:1007DC00280318D800210A4604F5A873C8B286422B
:1007EC0003F128031BD895E80E00206801F067FD83
:1007FC0005460028D9D101236073206884F8913212
:10080C0002F01DF8D5E743E9062203F8277C03F82C
:10081C00281C03F8252C43F8102C0130D5E743E9AC
:10082C00062203F8272C03F8280C03F8252C43F890
:10083C00102C0131D2E738B5044610B901252846F1
:10084C0038BD032380F89132006801F0E5FF0546BE
:10085C000028F3D1204603F0C7FD84F89152EEE74F
:10086C0038B590F890320446012B10D0012580F851
:10087C009052006801F00EFD2946204600F018FE4B
:10088C00206801F0DAFF002084F8900238BD0220C5
:10089C00FCE710B590F890320446012B10D00123E0
:1008AC0080F89032006801F0FEFC0021204600F038
:1008BC00FFFD206801F0C3FF002084F8900210BDFA
:1008CC000220FCE710B590F890220446012A0AD0C9
:1008DC000122417380F89022006801F0A8FF0020EB
:1008EC0084F8900210BD0220FCE700002DE9F04FC7
:1008FC00044687B0006801F0A4FF10F4004500F036
:10090C0025844FF02809C54E2068B0F844301904EE
:10091C0002D407B0BDE8F08FB0F84470B9B217F04C
:10092C000F0740F0BF8011F0100126D103889BB255
:10093C00334043F400430380B0F85030227C9BB228
:10094C0003EBC20300EB4303B3F80434626AC3F352
:10095C0009031A44E3622046626203F062FD637B82
:10096C00002BD1D0A26A002ACED1637B216843F040
:10097C008003A1F84C306273C6E70588ABB215F45E
:10098C00006521D0B0F8503094F850219BB203EBA5
:10099C00C20300EB4303B3F80C34B4F85621C3F391
:1009AC000903C4F86C3104F5267102F091F9226840
:1009BC002046138823F070031B051B0D43F08003A6
:1009CC00138003F01FFD9FE71B049DD5038823F0C4
:1009DC0070031B051B0D43F080030380B0F85030EF
:1009EC0094F850219BB203EBC20300EB4303B3F822
:1009FC000C34C3F30903C4F86C318BB1D4F8641113
:100A0C0071B1B4F8562102F063F9D4F86431D4F81A
:100A1C006C21294613442046C4F8643103F0F8FCD9
:100A2C0021680A88170593B23FF56EAF03F4405363
:100A3C00B3F5405F3FF468AFB1F8502001F20C40C1
:100A4C0092B2835AD4F86051C3F309033E2D8352FA
:100A5C001DD9835A6F09ED0608BF07F1FF379BB20A
:100A6C0043EA87236FEA43436FEA53439BB28352B3
:100A7C000B8823F4804323F070031B041B0C83F4BA
:100A8C00405343F4004343F080030B803CE7835A0C
:100A9C00002DE7D005F001079BB207EB550543EAA3
:100AAC008523E3E730F8273019041FFA83F840F167
:100ABC00F38030F8273009FB074223F070031B0545
:100ACC001B0D43F0800320F8273092F85C5192F80C
:100ADC005031D2F8641100F5806E95B9B0F85050D1
:100AEC00ADB2063505EBC3033EF81350C5F309054B
:100AFC00002D00F0B6802B46B2F8562102F0E8F833
:100B0C00AFE092F85351022D40F08A8018F48045E2
:100B1C000195B0F850504FEAC30BADB2D2F868C192
:100B2C0008F0400A5D443CD002353EF81550C5F340
:100B3C000905654514D94FF0000CC2F868C130F8AE
:100B4C00232022F4804222F070021204120C82F450
:100B5C00005242F4004242F0800220F8232006E0CA
:100B6C00ACEB050CC2F868C1BCF1000FE7D0BAF1D0
:100B7C00000F0DD030F8232022F4E04222F0700256
:100B8C001204120C42F4004242F0C00220F823205E
:100B9C00002D66D0282202FB07422B46B2F85821C2
:100BAC00ACE706353EF81550C5F30905654514D973
:100BBC00DDF804C0C2F868C130F8232022F480426A
:100BCC0022F070021204120C82F4005242F4004221
:100BDC0042F0800220F8232006E0ACEB050CC2F8B2
:100BEC0068C1BCF1000FE7D0BAF1000F0DD130F89D
:100BFC00232022F4E04222F070021204120C42F480
:100C0C00004242F0C00220F8232055B3282202FBF8
:100C1C0007422B46B2F85A2170E700BF0F8FFFFF37
:100C2C0030F8235025F4E04525F070052D042D0CEB
:100C3C0045F4004545F0C00520F8235092F850517A
:100C4C0030F82530ED0013F4804FB0F850309BB2E3
:100C5C002B4452D002333EF81350C5F30905002D36
:100C6C009BD109FB07F16318D3F86C212A44C3F814
:100C7C006C21D3F864212A44C3F86421D3F8682189
:100C8C001AB1D3F860319D423FD209FB074320468D
:100C9C0093F8501103F0BCFB18F0800F3FF434AE06
:100CAC00206809FB07FC30F827309BB2334043F433
:100CBC00004320F8273004EB0C03DA7C012A54D1D2
:100CCC00002107FB0992A1501A7F82B318F040084B
:100CDC005A7C34D002BBB0F850201B7C92B21B0162
:100CEC0000F2044010441A5AC2F309021A521A5A5A
:100CFC0092B242F400421A5219E006333EF81350F5
:100D0C00C5F30905002DACD083E701F5A871206867
:100D1C00214401F0ACFDBFE7012A08D1B0F8502006
:100D2C001B7C92B200F204401B0110441952282380
:100D3C0003FB0743197C204603F073FBE4E53AB947
:100D4C00B0F850201B7C92B21B0100F20C40C9E79A
:100D5C00012AECD1B0F850201B7C92B200F20C406E
:100D6C001B01104423F80080E1E7197CB0F85050C7
:100D7C004FEAC10AADB218F4807B9A6A00F5806E16
:100D8C00554417D102353EF81550C5F30905954267
:100D9C0002D3C3F828B0CEE7521B9A625A6A0CF100
:100DAC0010012A445A62DA6A21442A44DA6201F0B8
:100DBC005EFDA9E518F0400C08F4804800F0E480D2
:100DCC0002353EF815501FFA88F8C5F3090595420F
:100DDC002CBF0022521B9A62002A55D1282303FBF8
:100DEC0007435B7C002B3DD1B0F8502000F204454A
:100DFC0092B20B011544EA5AC2F30902EA52EA5ABA
:100E0C006FEA42426FEA524292B2EA52B0F8502074
:100E1C0000F20C4092B21044C25AC2F30902C25200
:100E2C00C25A6FEA42426FEA524292B2C252204612
:100E3C0003F0F7FAB8F1000F00F0E480282303FB6D
:100E4C0007432268197C32F8213023F4E04323F065
:100E5C0070031B041B0C43F4404343F0800322F843
:100E6C002130CFE0012BE2D1B0F850C000F20445A4
:100E7C001FFA8CFC65440B01EA52B0F8505000F29A
:100E8C000C40ADB22844D1E7B8F1000F0DD030F8CA
:100E9C00212022F4E04222F070021204120C42F4DF
:100EAC00404242F0800220F821204FF0280E0EFB29
:100EBC00074E9EF83420012A40F0A480DEF824204E
:100ECC0002EB050CCEF824C0DA6A2A44DA62DEF8AA
:100EDC003030DEF82020934231D39B1ACEF83030DC
:100EEC00282303FB07435D7C93B2002D41D1B0F85E
:100EFC0050E000F204451FFA8EFE7544090135F8E6
:100F0C0001E03E2ACEF3090E25F801E023D94FEA81
:100F1C00521ED2066A5A08BF0EF1FF3E92B242EA46
:100F2C008E226FEA42426FEA524292B26A522822F1
:100F3C0002FB0742128B614601F089FC62E01BB98F
:100F4C002A468EF83430CBE700228EF83420CEF8C7
:100F5C0030201A46C4E70AB96A5AE2E735F801E0CC
:100F6C0002F001081FFA8EFE08EB52024EEA8222B2
:100F7C00DBE7012DDBD1B0F8505000F20442ADB2EA
:100F8C002A4409015352D2E706353EF815501FFA90
:100F9C0088F8C5F3090595428CBF6246521B9A62CC
:100FAC00002A57D1282303FB07435B7C002B3FD13E
:100FBC00B0F8502000F2044592B20B011544EA5AE5
:100FCC00C2F30902EA52EA5A6FEA42426FEA52420B
:100FDC0092B2EA52B0F8502000F20C4092B2104497
:100FEC00C25AC2F30902C252C25A6FEA42426FEAB3
:100FFC00524292B2C252204603F013FAB8F1000FDB
:10100C003FF41CAF282303FB07472268397C32F8D6
:10101C00213023F4E04323F040031B041B0C83F02A
:10102C00300343F4004343F0800322F821306BE497
:10103C00012BE0D1B0F850C000F204451FFA8CFC33
:10104C0065440B01EA52B0F8505000F20C40ADB2BE
:10105C002844CFE7B8F1000F0DD130F8212022F44D
:10106C00E04222F070021204120C42F4404242F0B0
:10107C00800220F821204FF0280E0EFB074E9EF820
:10108C003420012ABED1DEF8242002EB050CCEF868
:10109C0024C0DA6A2A44DA62DEF83030DEF8202026
:1010AC0093422ED39B1ACEF83030282303FB0743F0
:1010BC005D7C93B2002D3ED1B0F850E000F20C45AF
:1010CC001FFA8EFE7544090135F801E03E2ACEF375
:1010DC00090E25F801E020D94FEA521ED2066A5AB1
:1010EC0008BF0EF1FF3E92B242EA8E226FEA4242F4
:1010FC006FEA524292B26A52282202FB0742528B8A
:10110C0019E71BB92A468EF83430CEE70022CEF808
:10111C0030208EF834201A46C7E70AB96A5AE5E738
:10112C0035F801E002F001081FFA8EFE08EB5202BE
:10113C004EEA8222DEE7012DDED1B0F8502000F21B
:10114C000C4592B215440A01AB52D5E7420512D5B3
:10115C0022682046B2F8443023F480631B041B0C35
:10116C00A2F8443003F069F92946204607B0BDE8DF
:10117C00F04FFFF7A7BB43040AD52268B2F84430FE
:10118C0023F480431B041B0CA2F84430FFF7C1BBB3
:10119C00870405D52268B2F8443023F40053F1E7F4
:1011AC00C60419D522682046B2F8403023F0040357
:1011BC001B041B0CA2F84030B2F8403023F008039B
:1011CC001B041B0CA2F8403003F054F92268B2F84F
:1011DC00443023F48053D5E7050548D5236802AD88
:1011EC00184629461A4603F1200632F8047B96422B
:1011FC0021F8027BF9D1B3F8402092B242F00102FF
:10120C00A3F84020B3F8402022F001021204120C83
:10121C00A3F84020B3F844205105FBD5B3F8442083
:10122C0022F480621204120CA3F8442035F8022B2D
:10123C0020F8042B8642F9D1B3F84020204692B214
:10124C0042F00802A3F84020B3F8442022F40062D4
:10125C001204120CA3F84420B3F8402092B242F0CE
:10126C000402A3F8402003F0F5F8FFF752BB820507
:10127C000DD522682046B2F8443023F400731B04C9
:10128C001B0CA2F8443003F0D4F8FFF742BBC305A3
:10129C007FF53FAB2268B2F8443023F4807371E7DA
:1012AC0070B52824054601F00700444311F0800F67
:1012BC0014BF04F1100104F5A87105EB040615BF69
:1012CC0001240024747486F8514114BF491949193A
:1012DC00022BCB7008BF0023087008BF0B710A618A
:1012EC0095F89032012B09D00123286885F89032AB
:1012FC0000F0F6FF002085F8900270BD0220FCE79C
:10130C00282301F00702534311F0800F10B5044657
:10131C0018BF03F1100118440BBF03F5A87101238A
:10132C00002309190ABF0919437480F851310A7056
:10133C0094F89032012B09D00123206884F8903264
:10134C0001F02EF9002084F8900210BD0220FCE779
:10135C0070B52824002601F007014C43051985F8C7
:10136C00501185F8516104F5A8710144C5E9592360
:10137C00C5F86C61006801F07AFA304670BD70B542
:10138C00282501F007014D434419C4E90923012222
:10139C000026217484F83420627405F11001014494
:1013AC002363E662006801F062FA304670BD38B51E
:1013BC00037901F00705AB4204462AD311F0800FE4
:1013CC004FF028031CD001226B4303F1100103449E
:1013DC0001445A7401230D708B7094F890229A4238
:1013EC0019D0206884F8903201F0ADF925B9206845
:1013FC0004F5267101F029FA002084F8900238BD1A
:10140C0000224B4303F5A8710344014483F8512196
:10141C00E0E70120F3E70220F1E738B5027901F0AB
:10142C000F039A42044626D3282301F007025343A4
:10143C0011F0800F14BF03F1100103F5A8711844CB
:10144C004FF0000515BF012300230919091914BF1A
:10145C00437480F851318D700A7094F89032012BDE
:10146C000BD00123206884F8903201F08CF92846C7
:10147C0084F8905238BD0120FCE70220FAE710B541
:10148C00282411F0800F1BBF01F0070104FB0100A1
:10149C0004FB0100103008BF00F5A87099B21AB90E
:1014AC000273C180002010BD012283600273F9E732
:1014BC00704700002DE9F341054638B30368DB079C
:1014CC0010D42B689F075ED42B68190700F1958008
:1014DC002B685A0700F1C180EB69002B40F02C817E
:1014EC00002029E0904C636803F00C03042B07D018
:1014FC00636803F00C03082B0AD16368DE0307D57D
:10150C0023689C03DDD56B68002BDAD1012013E036
:10151C006B68B3F5803F12D1236843F480332360AA
:10152C00FFF726F8064623689803CAD4FFF720F87D
:10153C00801B6428F7D9032002B0BDE8F0819BB969
:10154C00236823F480332360236823F480232360EF
:10155C00FFF70EF8064623689903B2D5FFF708F893
:10156C00801B6428F7D9E6E7B3F5A02F236803D1D5
:10157C0043F480232360CFE723F480332360236874
:10158C0023F48023CBE7684C636813F00C0F07D06F
:10159C00636803F00C03082B10D16368DA030DD4D5
:1015AC0023689B0702D52B69012BAFD123686A698D
:1015BC0023F0F80343EAC203236085E72A695B4BF7
:1015CC006AB101221A60FEF7D3FF064623689F0713
:1015DC00ECD4FEF7CDFF801B0228F7D9ABE71A60DD
:1015EC00FEF7C6FF0646236898077FF56DAFFEF73A
:1015FC00BFFF801B0228F6D99DE7AA694A4E4B4BC8
:10160C00E2B10122C3F88024FEF7B2FF0446736AEC
:10161C009B070DD54FF4FA52454B1B68B3FBF2F305
:10162C00019300BF019B5A1E0192002BF9D14FE789
:10163C00FEF79EFF001B0228E9D97CE7C3F8802443
:10164C00FEF796FF0446736A9F077FF541AFFEF7DE
:10165C008FFF001B0228F6D96DE7334CE369D800E5
:10166C0024D40127E36943F08053E361E36903F079
:10167C0080530093009B2F4E3368D90518D5EB6827
:10168C00012B26D1236A43F001032362FEF770FF7E
:10169C0041F288380646236A9B073FD5002F3FF45A
:1016AC001BAFE36923F08053E36115E70027E2E702
:1016BC00336843F480733360FEF75AFF8046336817
:1016CC00DA05DCD4FEF754FFA0EB08006428F6D949
:1016DC0031E7ABB9236A41F2883823F00103236266
:1016EC00236A23F004032362FEF742FF0646236AB3
:1016FC009807D3D5FEF73CFF801B4045F7D91AE776
:10170C00052B236A03D143F004032362BAE723F0C9
:10171C0001032362236A23F00403B6E7FEF728FFD4
:10172C00801B4045B7D906E700100240000042423A
:10173C0024000020007000402A4C626802F00C0269
:10174C00082A3ED00022022B274B1A662CD1FEF71A
:10175C000FFF06462368990120D42B6AB3F5803F0E
:10176C0005D16268A96822F400320A436260696A92
:10177C0062680B4322F474121343012263601A4B08
:10178C001A66FEF7F5FE054623689A013FF5A8AEEA
:10179C00FEF7EEFE401B0228F6D9CCE6FEF7E8FE7B
:1017AC00801B0228D6D9C6E6FEF7E2FE0546236862
:1017BC009B017FF595AEFEF7DBFE401B0228F6D9A8
:1017CC00B9E6012B3FF4A2AE60682B6A00F48032BC
:1017DC009A427FF49BAE6B6A00F47010C01A18BF6B
:1017EC000120A9E600100240000042420D4A536855
:1017FC0003F00C01082912D10B48C3F38341DB031E
:10180C00405C09D55368094AC3F340435043084A26
:10181C00D35CB0FBF3F07047064B5843704703485A
:10182C00704700BF00100240CA57000800127A002F
:10183C00C857000800093D002DE9F0410D4604464B
:10184C0010B90120BDE8F081444A136803F0070386
:10185C008B4228D321688E0730D4CA0743D43F4A21
:10186C00136803F00703AB4265D822683C4D12F0B5
:10187C00040F6CD1130706D56B68226923F46053EF
:10188C0043EAC2036B60FFF7B1FF6B68354AC3F3E1
:10189C000313D35CD840344B1860344B1868FEF7F4
:1018AC0025FE0020CEE7136823F007030B431360DB
:1018BC00136803F007038B42C3D1CBE7284B11F01D
:1018CC00040F1EBF5A6842F4E0625A60080742BF18
:1018DC005A6842F460525A605A68A06822F0F002CA
:1018EC0002435A60B9E762681D4E012A33681AD167
:1018FC0013F4003FA5D0736841F2883823F003033A
:10190C0013437360FEF734FE07467368626803F096
:10191C000C03B3EB820FA2D0FEF72AFEC01B40458E
:10192C00F3D903208EE7022A02D113F0007FE1E7FE
:10193C0013F0020FDEE7136823F007032B43136049
:10194C00136803F00703AB427FF47BAF8DE76B6842
:10195C00E16823F4E0630B436B608BE700200240EB
:10196C00001002401C580008240000200400002035
:10197C0003682DE9F3410546D80720D5364CE369B9
:10198C00D9002AD40126E36943F08053E361E3696B
:10199C0003F080530193019B304F3B68DA051ED551
:1019AC00236A13F440732ED1236A6A6823F44073BC
:1019BC00134323621EB1E36923F08053E3612A6869
:1019CC00910706D52449A8684B6823F44043034388
:1019DC004B60D30637D4002012E00026DCE73B68CE
:1019EC0043F480733B60FEF7C3FD80463B68DB0528
:1019FC00D6D4FEF7BDFDA0EB08006428F6D9032071
:101A0C0002B0BDE8F0816A6802F440729A42CBD011
:101A1C000120134A236AC2F84004002023F44071C9
:101A2C00DF07C2F840042162BED5FEF7A1FD41F2EA
:101A3C0088380746236A9807B6D4FEF799FDC01B71
:101A4C004045F7D9DBE7044AE968536823F480037F
:101A5C000B435360BFE700BF001002400070004012
:101A6C000000424270477047036870B5DD681E691C
:101A7C000446B1070DD5AA070BD56FF002021A6107
:101A8C00012202779B699B0769D000F0FAFB0023C7
:101A9C002377710710D56A070ED56FF004022368FF
:101AAC0020461A61022222779B6913F4407F5CD096
:101ABC0000F0E7FB0023237733070FD528070DD55C
:101ACC006FF00802236820461A6104222277DB6932
:101ADC00990750D000F0D5FB00232377F20610D5E0
:101AEC00EB060ED56FF01002236820461A6108220F
:101AFC002277DB6913F4407F43D000F0C2FB002354
:101B0C002377F00708D5E90706D56FF001022368A3
:101B1C0020461A6100F092FB320608D52B0606D53A
:101B2C006FF08002236820461A6100F090F870066E
:101B3C0008D5690606D56FF04002236820461A6165
:101B4C00FFF791FFB20622D5AB0620D56FF020022D
:101B5C0023682046BDE870401A6100F077B800F0A9
:101B6C008EFB2046FFF77EFF91E700F088FB2046B6
:101B7C00FFF778FF9EE700F082FB2046FFF772FF2D
:101B8C00AAE700F07CFB2046FFF76CFFB7E770BDBF
:101B9C00174A036890420AD0B0F1804F07D0A2F5E3
:101BAC009432904203D002F58062904207D14A6889
:101BBC0023F070031343CA6823F4407313434A6938
:101BCC0023F08003134303608B68C3620B6883624A
:101BDC00074B984204BF0B690363012343610369FC
:101BEC00DB0742BF036923F001030361704700BFA9
:101BFC00002C014010B5044630B390F83D3003F092
:101C0C00FF021BB980F83C2001F0FAFC022320688B
:101C1C0084F83D30211DFFF7BBFF0123002084F821
:101C2C00463084F83E3084F83F3084F8403084F8F5
:101C3C00413084F8423084F8433084F8443084F8DE
:101C4C00453084F83D3010BD0120FCE770477047EB
:101C5C00026802F10C0353E8003F23F490730C323A
:101C6C0042E8003102680029F2D102F1140353E872
:101C7C00003F23F0010302F1140C4CE80031002961
:101C8C00F3D1036B012B0BD102F10C0353E8003F92
:101C9C0023F0100302F10C0C4CE800310029F3D1B5
:101CAC00202380F8423000230363704708B50023DB
:101CBC00406AC385C38401F0E3FC08BD704790F80B
:101CCC00423007B5222B42D181680268B1F5805FA2
:101CDC00836A3FD1016900293FD15268C2F30802DF
:101CEC0023F8022B8362C38D013B9BB2C385002B6F
:101CFC002DD10268D16821F02001D160D16821F486
:101D0C008071D160516921F001015161202280F86C
:101D1C0042204363026B012A026828D1036302F15B
:101D2C000C0353E8003F23F0100302F10C0C4CE8B9
:101D3C0000310029F3D11368DB0605D50191136836
:101D4C00019353680193019B818DFFF7B7FF03B09B
:101D5C005DF804FB39B9016929B95268D2B21A701D
:101D6C00836A0133BEE7526802F07F02F7E701F0A5
:101D7C0081FCECE7036873B51A6804461607D9684A
:101D8C005D6908D1960668D58D0666D502B0BDE8AA
:101D9C007040FFF794BF05F0010001F49075054306
:101DAC005BD0D60705D5CD0542BF636C43F001036C
:101DBC006364530704D518B1636C43F00203636486
:101DCC00960704D518B1636C43F0040363641507DC
:101DDC0007D501F0200303431EBF636C43F00803D7
:101DEC006364636C002B32D0920604D58B0602D54B
:101DFC002046FFF764FF266820467369626C03F087
:101E0C00400302F0080253EA020522D0FFF720FF3C
:101E1C0073695E0618D5226802F1140353E8003F7B
:101E2C0023F04003143242E800310029F3D1E06B77
:101E3C0050B1744B4363FEF749FC40B1E06B436B0C
:101E4C0002B0BDE870401847204601F019FC02B002
:101E5C0070BD01F015FC6564F9E7206B012840F0BA
:101E6C009480D50640F19180C80640F18E80002206
:101E7C0001921A6801925A680192019A5A695206A3
:101E8C004DD5E16B0A68526892B2002ADFD0A08D62
:101E9C009042DCD9E2858A69202A36D003F10C0203
:101EAC0052E8002F22F4807203F10C0040E800216C
:101EBC000029F3D103F1140252E8002F22F00102A1
:101ECC0003F1140040E800210029F3D103F11402BE
:101EDC0052E8002F22F0400203F1140040E80021E8
:101EEC000029F3D1202284F84220216303F10C0253
:101EFC0052E8002F22F0100203F10C0040E8002100
:101F0C000029F3D1E06BFEF7C1FB02236363E38D81
:101F1C00A18DC91A89B22046FFF7D0FE97E7E28D52
:101F2C00E18D92B289B2002991D0A18D891A89B222
:101F3C0000298CD003F10C0252E8002F22F490728D
:101F4C0003F10C0545E800200028F3D103F114023D
:101F5C0052E8002F22F0010203F1140545E800209D
:101F6C000028F3D1202284F84220206303F10C02D4
:101F7C0052E8002F22F0100203F10C0545E8002076
:101F8C000028F3D102236363C5E7160628D50D0696
:101F9C0026D594F84120212A7FF459AFA168226AF2
:101FAC00B1F5805F17D12169A9B932F8021BC1F3D1
:101FBC00080159602262E28C013A92B2E284002A52
:101FCC007FF445AFDA6822F08002DA60DA6842F01A
:101FDC004002DA603BE7511C216212785A60EAE752
:101FEC0050067FF534AF4A067FF531AFDA682046EC
:101FFC0022F04002DA60202384F8413001F03DFBEE
:10200C0025E700BFB91C000890F8412090F8420069
:10201C00104370470023C2854364222382850269E2
:10202C0080F84230816203681AB1DA6842F4807237
:10203C00DA605A69002042F001025A61DA6842F013
:10204C002002DA60704770B590F84260202E07D1FC
:10205C0041B13AB100240463FFF7DCFF204670BDA8
:10206C000220FCE70120FAE7836810B504462BB187
:10207C000322014698470023C4E9023310BD83684C
:10208C0010B5044613B1032201469847204610BDF3
:10209C000B4B98420BD0B0F1804F0AD0A3F5943380
:1020AC00984208D003F58063984206D0FEE70020E2
:1020BC00704701207047022070470320704700BF13
:1020CC00002C0140826D70B504461046FFF7E0FF0E
:1020DC000546104601F02AFA0023084A04F164066A
:1020EC0042F82530E36004F1B405B54204D0103D4C
:1020FC002846FFF7C4FFF8E7204670BD8C0200208D
:10210C00F8B504460846FFF7C3FFA26D0D4602B1B1
:10211C00FEE71C4904F10C0341F820300E2328463D
:10212C00C4E91732A565E46001F0BAF904F164065C
:10213C0004F1B40730461036FFF796FFBE42F9D1D2
:10214C0000234FF6FF72C4E90033C4E90C33C4E931
:10215C000E33C4E91033C4E90632C4E90833A36072
:10216C0084F82C30A36484F84C3084F84D306361CF
:10217C0080232561A36204F11000BDE8F840FFF74D
:10218C0039BD00BF8C020020034B186810B104301D
:10219C00FFF76ABC704700BF8C020020FFF7F4BF4A
:1021AC00034B586810B10430FFF75EBC704700BF9A
:1021BC008C020020034B986810B10430FFF754BC1C
:1021CC00704700BF8C020020034BD86810B104305C
:1021DC00FFF74ABC704700BF8C0200200022C0E908
:1021EC000022C0E902227047F8B504460E4600F101
:1021FC00640500F1B40728461035FFF7EFFFBD4228
:10220C00F9D1002320463146A365FFF779FF20461C
:10221C00F8BD826810B50AB902F00EFDC368BDE8BE
:10222C001040184708B500B9FEE701F037F900680F
:10223C00C36E13B16430FFF7ECFF08BDFFF7F2BFBC
:10224C0010B500B9FEE7037F013B072B10D8DFE880
:10225C0003F004140F100F0F0F12012401F01EF9DC
:10226C00240100686434204483680BB1FFF7D1FF6C
:10227C0010BD0324F2E70424F0E70224EEE7FFF795
:10228C00DFBFFFF7DDBF84B004A800E90E0000201B
:10229C0004B0704703464FF43F420020A3F84400BB
:1022AC00A3F840207047B0F8403023F47C535B0413
:1022BC005B0CA0F8403000207047002070471FB521
:1022CC00044604A800E90E0000200123A4F84030C5
:1022DC00A4F84000A4F84400A4F8500004B010BDC9
:1022EC00F0B50A78CD7830F82240034624F4EC445B
:1022FC0024F070042404240C032D03D8DFE805F02B
:10230C0041494745012048F280073C4323F82240CD
:10231C0033F822409F4EA4B2344014433C4323F87C
:10232C0022400C7B03EB021C002C40F08C80CC88F0
:10233C004F78640864007FB3B3F8501089B26144DD
:10234C00A1F8004433F822104C0609D533F82210BA
:10235C0089B2314041F4004141F0C00123F8221010
:10236C0033F822108C4C89B2012D01EA040101D002
:10237C0081F0200141F4004141F0800123F822104A
:10238C004DE0284644F40074BDE744F4C0640020DA
:10239C00B9E744F48064FAE7B3F85050ADB2654441
:1023AC00A5F80844B3F85040A4B26444B4F80C54F3
:1023BC00C5F30905A4F80C540D693E2D30D9E90676
:1023CC00B4F80C144FEA551608BF06F1FF3689B263
:1023DC0041EA86216FEA41416FEA514189B2A4F882
:1023EC000C1433F822104F040DD533F8221021F4BD
:1023FC00E04121F070010904090C41F4404141F025
:10240C00800123F82210654CB2B91A8892B222408E
:10241C0082F4405242F4004242F080021A80F0BD35
:10242C00B4F80C14002DD5D005F0010689B206EBDA
:10243C00550541EA8521D1E733F8221089B22140B4
:10244C0081F4005196E7022D33F822405BD1A4B2FF
:10245C00344044F4014444F0800423F82240B3F89F
:10246C0050400E89A4B2760864447600A4F8006447
:10247C004E89B3F850407608A4B264447600A4F8B0
:10248C0008644978002948D133F822104E040DD540
:10249C0033F8221021F4E04121F070010904090CF9
:1024AC0041F4404141F0800123F8221033F822100E
:1024BC004D060DD533F8221021F4E04121F07001C6
:1024CC000904090C41F4004141F0C00123F8221029
:1024DC0048F2800433F8221021F4804121F070017D
:1024EC000904090C81F44051214323F8221033F8DC
:1024FC00221021F4E04121F040010904090C0C43A5
:10250C0023F822408BE724F4E24424F070042404E2
:10251C00240C274323F82270A1E733F822104C0433
:10252C000DD533F8221021F4E04121F0700109049B
:10253C00090C41F4404141F0800123F8221033F89A
:10254C00221049060DD533F8221021F4E04121F078
:10255C0070010904090C41F4004141F0C00123F859
:10256C00221033F822100C4C89B22140012D18BFD7
:10257C0081F0200141F4004141F0800123F8221048
:10258C0033F8221021F4804121F070010904090C68
:10259C00F0E600BF8F8FFFFFBF8FFFFF8FBFFFFFE6
:1025AC004A780B78097BD9BB0AB330F82320510643
:1025BC000DD530F8232022F4E04222F070021204F0
:1025CC00120C42F4004242F0C00220F8232030F8F2
:1025DC00232022F4E04222F040021204120C42F4B6
:1025EC00004242F0800220F823200020704730F88F
:1025FC00232052040DD530F8232022F4E04222F09F
:10260C0070021204120C42F4404242F0800220F894
:10261C00232030F8232022F4804222F07002DCE7E1
:10262C00002A4AD130F8232051040DD530F823204C
:10263C0022F4E04222F070021204120C42F44042E6
:10264C0042F0800220F8232030F8232052060DD5CA
:10265C0030F8232022F4E04222F070021204120C13
:10266C0042F4004242F0C00220F8232048F28001DC
:10267C0030F8232022F4E04222F070021204120CF3
:10268C0042F4004242F0C00220F8232030F823200C
:10269C0022F4804222F070021204120C0A4320F839
:1026AC00232030F8232022F4E04222F040021204CE
:1026BC00120C114320F8231097E730F82320510413
:1026CC000DD530F8232022F4E04222F070021204DF
:1026DC00120C42F4404242F0800220F8232030F8E1
:1026EC00232052060DD530F8232022F4E04222F0AC
:1026FC0070021204120C42F4004242F0C00220F8A4
:10270C00232048F2800130F8232022F4E04222F00A
:10271C0070021204120C42F4404242F0800220F883
:10272C00232030F8232022F4E04222F0400212044D
:10273C00120C0A4320F8232030F8232022F4804284
:10274C0022F07002B3E74B780A788BB130F8223064
:10275C0023F4E04323F040031B041B0C83F0100311
:10276C0043F4004343F0800320F8223000207047EC
:10277C0030F8223023F4804323F070031B041B0C2D
:10278C0083F48053ECE70B7B3BBB4B780A7833B379
:10279C0030F822305B060DD530F8223023F4E043BC
:1027AC0023F070031B041B0C43F4004343F0C003E1
:1027BC0020F82230CB78012B0FD030F8223023F4C4
:1027CC00E04323F040031B041B0C83F0200343F471
:1027DC00004343F0800320F822300020704730F88B
:1027EC0022305B040DD530F8223023F4E04323F083
:1027FC0070031B041B0C43F4404343F0800320F88C
:10280C00223030F8223023F4804323F070031B0471
:10281C001B0C83F44053DAE701220346A0F8402056
:10282C0000200322A3F84400A3F84020704711B9FC
:10283C008023A0F84C300020704700207047002007
:10284C007047B0F8440080B270470020704700EB2E
:10285C004200013300F580605B0800EB8303834288
:10286C0000D1704731F8022B20F8042BF7E72DE943
:10287C00F0474B780446012B0D460A7B40F015813E
:10288C00D1F810908F6949694F4528BF4F460ABB54
:10289C00BFB2EA883B46FFF7DAFFB4F8500029785C
:1028AC0080B204F20442090102448F522A7834F8AF
:1028BC00223023F4E04323F040031B041B0C83F071
:1028CC003003002043F4004343F0800324F822300B
:1028DC00BDE8F087EB7895F800E0022B2E6A4FEA02
:1028EC000E1C40F0CD80B14530F82E2080F0B18028
:1028FC0022F4E04222F070021204120C42F4014263
:10290C0042F0800220F82E2030F82E80B0F850E0F3
:10291C00F61B18F040082E6201EB070ABBB21FFA37
:10292C008EFE4DD000F20C42724422F80C306A89B3
:10293C00FFF78DFFB14536BFF31B00233E466A7887
:10294C002B62C5F814A0B3B272BBB4F8502028782F
:10295C0092B204F2044100011144425A3E2EC2F3D9
:10296C000902425215D9F206425A4FEA561708BFCD
:10297C0007F1FF3792B242EA87226FEA42426FEACE
:10298C00524292B242522A8951462046FFF75FFFCB
:10299C008CE7425A002EF0D006F0010792B207EBFA
:1029AC00560642EA8622ECE7012AECD1B4F8500034
:1029BC00297880B204F20442090102448B52E2E706
:1029CC0000F20442724422F80C302A89FFF73FFFD0
:1029DC00B14536BFF31B43463E466A782B62C5F8B9
:1029EC0014A0B3B24ABBB4F85020287892B204F2C7
:1029FC000C4100011144425A3E2EC2F309024252CC
:102A0C0010D9425A7709F60608BF07F1FF3792B280
:102A1C0042EA87226FEA42426FEA524292B2425233
:102A2C006A89B1E7425A002EF4D006F0010792B23F
:102A3C0007EB560642EA8622F0E7012AF0D1B4F8F9
:102A4C005000297880B204F20C42090102448B52E6
:102A5C00E6E722F4E24222F070021204120C42F475
:102A6C00004242F0800220F82E20B0F8503000F2E4
:102A7C0004429BB21A44B3B222F80C302A8985E77F
:102A8C0030F82E20F61B2E62B0F850605206BBB206
:102A9C00B6B206D500F20C42324422F80C306A89E8
:102AAC0074E700F204423244E6E7002A3BD18B691A
:102ABC000969B0F850008B4284BF5A1A0B4629782A
:102ACC00AA6180B204F20C4209010244885A3E2BDE
:102ADC00C0F3090088521AD95809DB068B5A08BF73
:102AEC0000F1FF309BB243EA80236FEA43436FEA65
:102AFC0053439BB28B522A7834F8223023F4804310
:102B0C0023F070031B041B0C83F44053D9E60BB960
:102B1C008B5AEAE7885A03F0010680B206EB53039E
:102B2C0040EA8323E5E7CA78022A70D1002B38D11A
:102B3C00B0F850200B7892B200F204401B01104404
:102B4C00C25AC2F30902C2520A693E2A44D9C15A76
:102B5C005609D70608BF06F1FF3689B241EA86212D
:102B6C006FEA41416FEA514189B2C152B4F8500049
:102B7C0004F20C4180B20144C85A3E2AC0F3090049
:102B8C00C85234D95009D606CA5A08BF00F1FF30D2
:102B9C0092B242EA80226FEA42426FEA524292B209
:102BAC00CA52EB69002BA6D02A7834F822104804BC
:102BBC0001F0400327D5002B9DD034F8223023F4AC
:102BCC00E04323F070031B041B0C43F4004343F05D
:102BDC00C00324F822308EE7C15A002AC0D002F07C
:102BEC00010689B206EB520641EA8621BCE70AB916
:102BFC00CA5AD0E7C85A02F0010680B206EB52025C
:102C0C0040EA8222CBE7002B7FF475AFD5E7012A8F
:102C1C005CD18A6909698A4294BF0020501AA86164
:102C2C0088BF0A46002B7FF466AFB4F850102B789F
:102C3C0089B204F204401B010844C15A3E2AC1F374
:102C4C000901C1522BD9D106C15A4FEA521608BFFD
:102C5C0006F1FF3689B241EA86216FEA41416FEAFB
:102C6C00514189B2C152B4F8500004F20C4180B207
:102C7C000144C85A3E2AC0F30900C8521AD9500957
:102C8C00D206CA5A08BF00F1FF3092B242EA802243
:102C9C006FEA42426FEA524292B2CA522BE7C15AD1
:102CAC00002ADAD002F0010689B206EB520641EA9C
:102CBC008621D6E70AB9CA5AEAE7C85A02F00106D1
:102CCC0080B206EB520240EA8222E5E70120FFE5E2
:102CDC0000EB4200F0B500F580605D0807460C463D
:102CEC002E46023436B9DB0744BF30F8253001F8E4
:102CFC001530F0BD37F8042B013E92B204F8022CCB
:102D0C00120A04F8012CECE701F052BE01F058BE97
:102D1C0086B0042841D8DFE800F003101C283400EA
:102D2C001F4B20489A6942F004029A619B6903F098
:102D3C0004030193019B06B07047194B1A489A691A
:102D4C0042F008029A619B6903F008030293029B0C
:102D5C00F1E7134B15489A6942F010029A619B698E
:102D6C0003F010030393039BE5E70D4B10489A699E
:102D7C0042F020029A619B6903F020030493049BA8
:102D8C00D9E7074B0B489A6942F040029A619B695C
:102D9C0003F040030593059BCDE70020CBE700BF74
:102DAC000010024000080140000C014000100140DE
:102DBC000014014000180140F8B51349064600F014
:102DCC0040FBFFF765F9114F054657F8203073B9F2
:102DDC00B420FFF799FF0C490446304600F031FB54
:102DEC0001462046FFF700FA57F825301C601C6896
:102DFC0044B12046FFF766F92046BDE8F840B421FF
:102E0C00FFF784BFF8BD00BF805800088C0200207B
:102E1C00FDF7AEBB704708B5FDF79EFBFDF721FC37
:102E2C00FFF7F8FF08BD70470F4B84B0DA6942F02A
:102E3C008052DA61DA6902F080520192019A9A6941
:102E4C0042F001029A619A6902F001020292029A1E
:102E5C005A6942F040025A615B6903F040030393E4
:102E6C00039B04B0704700BF001002400C4BD3F81A
:102E7C00FC20D2015EBFD3F8FC2042F08072C3F874
:102E8C00FC200022074B5A601A6842F001021A60BB
:102E9C0000BF00BF00BF5868B0FA80F0400970470F
:102EAC0000ED00E0001000E008B5FFF7BDFFFFF7F4
:102EBC00DDFFFDF73FFBFFF7B6FF01F02EFCBDE891
:102ECC0008400148FDF7D2BB1C0000200023C0E9DC
:102EDC000033C0E9023370470023012803F10102DB
:102EEC000AD11422DBB25343054A181D10448168E1
:102EFC0029B11A441369184713464008EDE7704787
:102F0C009C0200200120FDF727BC0220FDF724BC09
:102F1C000420FDF721BC0820FDF71EBC1020FDF796
:102F2C001BBC08B52020FDF717FC4020FDF714FC56
:102F3C008020FDF711FC4FF48070FDF70DFCBDE80F
:102F4C0008404FF40070FDF707BC38B506244FF469
:102F5C008065A8B2FDF700FC013C4FEA4505F8D1AD
:102F6C0038BD0000344A08B51046062300F8043B6F
:102F7C00FFF7ACFF072302F118001375FFF7A6FF4C
:102F8C00082302F12C0082F82830FFF79FFF092359
:102F9C0002F1400082F83C30FFF798FF0A2317211A
:102FAC0002F1540082F85030FFF790FF02F16800F4
:102FBC0082F86410FFF78AFF02F17C0082F8781027
:102FCC00FFF784FF02F1900082F88C10FFF77EFF70
:102FDC0002F1A40082F8A010FFF778FF82F8B41079
:102FEC00282102F1B800FFF771FF02F1CC0082F842
:102FFC00C810FFF76BFF02F1E00082F8DC10FFF75E
:10300C0065FF02F1F40082F8F010FFF75FFF02F5A4
:10301C00847082F80411FFF759FF02F58E7082F864
:10302C001811FFF753FFBDE8084002F5987082F8BD
:10303C002C11FFF74BBF00BF9C02002038B5054C8C
:10304C00A4F5A075143C201DFFF719F8AC42F9D17A
:10305C0038BD00BFDC0300207B4B82B09A6901387D
:10306C0042F001029A619B6903F001030193019BF9
:10307C0023282CD8DFE810F024002D0034003B006E
:10308C00400047004C00530058005F0068006D0082
:10309C0074007D008200890092009B00A000A700B4
:1030AC00B000B500BC002B002B002B00C100C800E9
:1030BC002B002B002B002B00CD00D200D900E00000
:1030CC00624A536843F0E06343F00103536002B07B
:1030DC0070475E4A536823F0010343F0E063F5E761
:1030EC005A4A536843F0E06343F00203EEE7574A51
:1030FC00536823F00203F0E7544A536843F0E0634B
:10310C0043F00403E2E7514A536823F00403E4E775
:10311C004E4A536843F0E06343F00803D6E74B4A4A
:10312C00536823F00803D8E7484A536843F0E06338
:10313C0043F03003CAE7454A536823F0300343F0A9
:10314C00E06343F01003C1E7404A536823F03003B7
:10315C00C3E73E4A536843F0E06343F0C003B5E76E
:10316C003A4A536823F0C00343F0E06343F0400352
:10317C00ACE7364A536823F0C003AEE7334A5368D2
:10318C0043F0E06343F44073A0E7304A536823F400
:10319C00407343F0E06343F4007397E72B4A5368A2
:1031AC0023F4407343F0E06343F480738EE7274AC3
:1031BC00536823F4407390E7244A536843F0E06368
:1031CC0043F4406382E7214A536823F4406343F09D
:1031DC00E06343F4006379E71C4A536823F44063CB
:1031EC007BE71A4A536843F0E06343F480536DE77E
:1031FC00164A536823F480536FE7144A536843F01C
:10320C00E06343F4004361E7104A536823F400433E
:10321C0063E70E4A536823F0E06357E70B4A5368A1
:10322C0023F0E06343F0807350E7084A536823F0BF
:10323C00E06343F0007349E7044A536823F0E0630A
:10324C0043F0806342E700BF0010024000000140E1
:10325C0091FAA1F3B3FA83F370B50D0E0F2691FA20
:10326C00A1F1B1FA81F144599B0006FA03F38900EC
:10327C0024EA03048A402243425170BD91FAA1F31F
:10328C00B3FA83F370B50D0E042691FAA1F1B1FADD
:10329C0081F144599B0006FA03F3890024EA0304E4
:1032AC008A402243425170BD431C04D00C3151F86A
:1032BC000C3C5A1C01D100207047834201F10C01D7
:1032CC00F5D1012070470000431C2DE9F34106465F
:1032DC000C4600D1FEE7524B00F00F02C0F3031076
:1032EC0001F0070853F82250FFF712FDB8F1010F57
:1032FC00074615D195FAA5F3B3FA83F30321280EEB
:10330C003A589B0001FA03F322EA030295FAA5F35B
:10331C00B3FA83F39B00994011433950012213E017
:10332C00C4F30620B8F1030F0AD801A353F828F010
:10333C004F33000829330008DD330008EB33000855
:10334C00FEE7FFF789FE08222946384608F1FF38C8
:10335C00FFF77EFFB8F1010F06D814F0080218BF72
:10336C0004222946FFF78AFF95FAA5F22B0EB2FA32
:10337C0082F2F9580F239200934095FAA5F2B2FA13
:10338C0082F2C4F301140B409200022C23FA02F3D4
:10339C0027D1082B04D1042229463846FFF758FFC1
:1033AC00204B9A6942F001029A619B6903F0010378
:1033BC000193019BA6F10D03012B25D81A4A5368E2
:1033CC0023F0E06343F08063536002B0BDE8F0810A
:1033DC007F2801D10922B7E7FFF73EFEFAE700226A
:1033EC00B2E7042B04D1082229463846FFF730FFF8
:1033FC002B0A93FAA3F3B3FA83F3FA689C4022EAFC
:10340C0015221443FC60CBE70F2E02D0133E012E85
:10341C00DBD8054A536823F0E06343F00073D3E72D
:10342C00DC57000800100240000001400B685A1CD9
:10343C0001D100207047834201D1486870470C319C
:10344C00F4E7431C01D0FFF7F1BF002070470000E8
:10345C000F4B1A6842F001021A6059680D4A0A4073
:10346C005A601A6822F0847222F480321A601A6848
:10347C0022F480221A605A6822F4FE025A604FF439
:10348C001F029A604FF00062034B9A60704700BFB6
:10349C00001002400000FFF800ED00E00438704717
:1034AC001E4B84B098420CD103F564439A6942F4E4
:1034BC0000629A619B6903F400630093009B04B063
:1034CC007047B0F1804F0AD1154BDA6942F0010216
:1034DC00DA61DB6903F001030193019BEFE7114B08
:1034EC0098420BD103F50333DA6942F00202DA6138
:1034FC00DB6903F002030293029BE0E70A4B98425C
:10350C00DDD103F50233DA6942F00402DA61DB69DA
:10351C0003F004030393039BD1E700BF002C01408D
:10352C00001002400004004000080040104B98427C
:10353C0005D1104A936923F4006393617047B0F18D
:10354C00804F05D10B4AD36923F00103D361704737
:10355C00094B984204D1074AD36923F00203F5E7DB
:10356C00064B9842F3D1034AD36923F00403EDE7E9
:10357C00002C0140001002400004004000080040F4
:10358C00431C10D00C4B984210D007D8B0F1804F90
:10359C000ED0A3F5806398420CD0FEE7074B9842FF
:1035AC00FBD1192070476FF00D0070471E2070473B
:1035BC001C2070471D20704700080040002C014063
:1035CC00431C10D00C4B984210D007D8B0F1804F50
:1035DC000ED0A3F5806398420CD0FEE7074B9842BF
:1035EC00FBD11B2070476FF00D0070471E207047F9
:1035FC001C2070471D20704700080040002C014023
:10360C0038B504460068FFF74BFFFFF7B9FFD4E964
:10361C001312FCF7C5FF2068FFF7B2FFFCF7F0FFB1
:10362C0022681046FFF7CCFF05461046FFF7A8FFAF
:10363C0085420BD0D4E913122846FCF7B1FF206861
:10364C00FFF7BEFFBDE83840FCF7DABF38BD00001D
:10365C0008B5074B90F8652053F82200FEF7D4FC10
:10366C0000F02200A0F122035842584108BD00BFCF
:10367C00DC030020836C04381847C36C04381847EB
:10368C0030B5044650F8043985B01D6815F00105B5
:10369C0012D0002200921A6800925B680093009B83
:1036AC00FFF7D6FF40BB0122204604F1620105B0B2
:1036BC00BDE83040FEF7C7BC196811F0020106D016
:1036CC0001951A6801925B680193019BE8E71A68FF
:1036DC0012F0040206D002911A6802925B680293FF
:1036EC00029BDDE719680907DAD503921A68039281
:1036FC005B680393039BD3E705B030BD08B5252069
:10370C00FCF7A0FF024B1868BDE80840FEF732BB7F
:10371C00DC030020262008B5FCF794FF034B586807
:10372C0018B1BDE80840FEF725BB08BDDC0300203E
:10373C00272008B5FCF786FF034B986818B1BDE845
:10374C000840FEF717BB08BDDC03002003460A49FE
:10375C0010B508680344EFF30882934205D90C2294
:10376C004FF0FF30054B1A6010BD054A054C121B7B
:10377C009342F4D20B60F7E728000020080D0020DC
:10378C000050002000040000FEE700001622024B4F
:10379C004FF0FF301A607047080D00200120704771
:1037AC000A23038000487047A800002010B581212F
:1037BC000446084800F009FB08B10A2383718221F2
:1037CC00044800F002FB08B10A2383713B23014833
:1037DC00238010BDCC00002010B581210446084880
:1037EC0000F0F3FA08B10A2383718221044800F037
:1037FC00ECFA08B10A2383713B230148238010BDE6
:10380C004401002010B581210446084800F0DDFA7F
:10381C0008B1072383718221044800F0D6FA08B15D
:10382C00072383713B230148238010BD080100202E
:10383C000A7913B5012A4FF00002D0F8D432ADF852
:10384C00062003F1B00350F823302FD10A7812F080
:10385C0060020CD0202A50D14A78023A092A4CD85E
:10386C00DFE802F040394B4B4B4B4B4B3C344A7826
:10387C000B2A42D8DFE802F0392C41414141064184
:10388C004141575F4B881B0A222B07D1CA882D490F
:10389C002D2A28BF2D2200F022FD19E0212B2CD13E
:1038AC00CA882949092A28BF0922F4E73BB30A78B8
:1038BC0012F06002CED14A780B2A1ED8DFE802F053
:1038CC0015081D1D1D1D211D1D1D333B8A781A60F9
:1038DC00002002B010BD01221946DCE74A88120A0A
:1038EC005A60F5E70122191DD5E790F89C32032B9D
:1038FC0003D102220DF10601CDE700F0C3FC032039
:10390C00E7E74B881B0A222B05D1CA880F494A2AA4
:10391C0028BF4A22BFE7212BEFD1CA880C49092ABC
:10392C0028BF0922B7E790F89C22032AE5D101228F
:10393C0003F10801AFE790F89C22032ADDD18A78C5
:10394C009A60C5E72C000020B40000205C00002029
:10395C00C000002038B504460025812100F007FE88
:10396C002046A563822100F002FED4F8D432E5642F
:10397C0004EB8304D4F8C0320BB1C4F8C05200205D
:10398C0038BD000070B5D0F8D432104DB03340F8CB
:10399C002350037C0446002B0CBF07230A2301266B
:1039AC0003228121C0F8BC524387A0F84E30042377
:1039BC0000F0D3FD0823032282212046268700F045
:1039CC00CCFD0020A881A4F84C6070BDE803002059
:1039DC00022908D10022D0F8D432B03350F8233069
:1039EC005A73002070470129FBD10022D0F8D43241
:1039FC00B03350F823301A73F3E738B51346D0F8C8
:103A0C00D422B03250F8222072B190F89C42032C90
:103A1C0001D0002038BD557B01243DB954730A46B2
:103A2C00822100F0D1FDF4E70320F3E72046F1E713
:103A3C00012870B5064618D80E4C0F4D23788BB95B
:103A4C002A787AB90D490E4800F046F850B90D495C
:103A5C000B4800F06EF828B9094800F083F80123F0
:103A6C0023702B7016B123782B7070BD2B782370BC
:103A7C00FBE700BFF9030020F8030020EC01002055
:103A8C00FC03002080010020012870B5044610D8EA
:103A9C000A4E0B4D32782B783AB143B9094800F0F5
:103AAC0063F8084800F02BF801E0002BF6D10CB9B4
:103ABC00347070BD00232B70FBE700BFF9030020AE
:103ACC00F8030020FC0300200A4601460148FFF7DA
:103ADC0094BF00BFFC03002078B10023C0F8B832BB
:103AEC00C0F8C432C0F8D03209B1C0F8B412012306
:103AFC00027080F89C3200F0EFBC0320704710B5C8
:103B0C00044600F023FD012384F89C32D4F8B8322B
:103B1C001BB120465B682179984700232046C4F8E6
:103B2C00C432C4F8B432C4F8D032BDE8104000F04E
:103B3C00FFBC002313B50446ADF8063081B1CB6A47
:103B4C00C0F8B81223B10DF106009847C4F8D002A2
:103B5C000020D4F8D8320133C4F8D83202B010BDEA
:103B6C000320FBE700F0EBBC10B5044600F0EEFCC4
:103B7C00D4F8B8321BB120465B68217998470020F5
:103B8C0010BDD0F8B8320BB11B68184718467047F7
:103B9C0008B5D0F8B8325B689847002818BF0320E6
:103BAC0008BD38B500F2AA250446284600F05FFB94
:103BBC00012394F8AA12C4F89432B4F8B032C4F8C1
:103BCC00983201F01F03012B08D0022B0CD08BB9BB
:103BDC0029462046BDE8384000F014B92946204655
:103BEC00BDE8384000F072BA29462046BDE838409E
:103BFC0000F09BBA2046BDE8384001F0800100F08F
:103C0C00BDBC70B50446164609BBD0F89432032BE4
:103C1C000CD1D0E9573293420AD99B1A9A4228BF49
:103C2C001A463146C0F85C3100F06EFB002070BDC6
:103C3C0090F89C32032B06D1D0F8B8321B6913B123
:103C4C00C0F8D4129847204600F066FBEEE790F8D7
:103C5C009C32032BEAD1D0F8B8329B69002BE5D00B
:103C6C00BDE870400022C0F8D422184770B5044655
:103C7C0016460D4600293DD1D0F89432022B0ED1B8
:103C8C00D0E90732934212D99A1A3146C26100F038
:103C9C0033FB2B462A462946204600F09CFC94F820
:103CAC00A03213B1002384F8A032002070BD0CD1D7
:103CBC008269934209D8D0F898329A4205D20A46C2
:103CCC0000F01AFBC4F89852E3E794F89C32032BEB
:103CDC0008D1D4F8B832DB6823B100222046C4F8EE
:103CEC00D42298478021204600F048FC204600F062
:103CFC001EFBD4E790F89C32032BD6D1D0F8B83207
:103D0C005B69002BD1D0BDE870400022C0F8D422F2
:103D1C001847F8B50123002180F89C32D0F8B8324E
:103D2C000446C0F894124160C0F8A41280F8A012A6
:103D3C00B3B9002600224025012711464023204616
:103D4C0000F00BFC2B46002280212046A4F8647165
:103D5C00C4F8605100F001FC3046A7842562F8BD20
:103D6C005B68002BE5D098470028E2D00326E1E7FA
:103D7C0001740020704790F89C32042B1EBF90F801
:103D8C009C32DBB280F89D32042380F89C320020F8
:103D9C00704790F89C32042B02BF90F89D32DBB236
:103DAC0080F89C320020704708B590F89C22032ABA
:103DBC0005D1D0F8B83213B1DB6903B198470020B4
:103DCC0008BD002070470020704710B5428803786A
:103DDC009A420AD904782044234444789BB2052C97
:103DEC00F6D184788C42F3D110BD0020FCE710B5DD
:103DFC000446802100F0C2FB2046BDE810400021A3
:103E0C0000F0BCBB73B50B78044603F06003202BA9
:103E1C000D4609D0402B07D093B12046FFF7E7FFA2
:103E2C000025284602B070BD29462046D4F8D4326D
:103E3C00AE3354F823309B6802B0BDE8704018478D
:103E4C004B78092BE9D801A252F823F077400008EF
:103E5C00BB400008273E00089F400008273E000892
:103E6C00713F0008813E0008273E00084B400008C7
:103E7C00B33F000800234988ADF806300B0A013B1C
:103E8C00062BCAD801A252F823F000BFB53E000899
:103E9C00E73E0008013F0008273E0008273E0008C7
:103EAC00433F0008593F0008D0F8B4321B68207C0F
:103EBC000DF106019847EA88002A00F0A380BDF8AE
:103ECC000630002BA9D09A4228BF1A460146ADF8FD
:103EDC000620204600F003FAA2E7027CD0F8B832A4
:103EEC0032B99B6A0DF10600984702234370E2E752
:103EFC00DB6AF7E7C9B2D0F8B432052912D8DFE88B
:103F0C0001F00307090B0D0F5B68002BCFD184E781
:103F1C009B68FAE7DB68F8E71B69F6E75B69F4E78F
:103F2C009B69F2E7DB69002B3FF477AF0DF10602DA
:103F3C00007C9847BFE7037C002B7FF46EAFD0F872
:103F4C00B8320DF106005B6B9847B4E7037C002B8D
:103F5C007FF463AFD0F8B8320DF106001B6B9847B5
:103F6C000723C3E78B88002B7FF457AFCB88002B3C
:103F7C007FF453AF4D887F2D3FF64FAF90F89C32B6
:103F8C00032B3FF44AAFEDB2294680F89E5200F065
:103F9C0014FB204600F0C0F91DB1022384F89C32BA
:103FAC003EE70123FAE78978474D0129297003D9A7
:103FBC00FFF71DFF032534E790F89C32022BDEB28D
:103FCC0008D0032E17D0FFF712FF20462978FFF7F1
:103FDC00DFFDEFE7B1B101214160FFF7D2FD0546EE
:103FEC00204625B1FFF703FF84F89C6219E700F027
:103FFC0093F90323D2E749B90223416080F89C323C
:10400C00FFF7C6FD204600F087F909E74168012952
:10401C00F8D0C9B2FFF7BCFD297820466160FFF7E4
:10402C00B0FD05460028EDD02046FFF7E0FE204607
:10403C002179FFF7ADFD022384F89C32F1E6CA88A2
:10404C00012A7FF4EAAE90F89C120229CBB207D871
:10405C00002B3FF4E2AE0146002341F8083F38E75D
:10406C00032B7FF4DAAE011D33E790F89C32013B51
:10407C00022B3FF6D2AECA88022A7FF4CEAED0F81D
:10408C00A4320146002B0CBF0123032341F80C3F43
:10409C001FE74B88012B02D1C4F8A432B2E7022BE4
:1040AC007FF4BBAE8B881B0A80F8A032AAE790F88D
:1040BC009C32013B022B3FF6B0AE4B88012B7FF4B8
:1040CC00AFAE0023E8E700BFD806002070B50B7830
:1040DC00044603F060025B060E4601D5402A1FD150
:1040EC0094F89C32013B022B1AD8317920460229D4
:1040FC0017D8FFF766FE88B9D4F8B8329B686BB155
:10410C00C4F8D4023146204698470546F3881BB9BB
:10411C0015B9204600F000F9284670BD0325F5E7D7
:10412C002046FFF764FE0025F6E770B50B780446D1
:10413C0003F06003202B0E468A880D7957D0402B54
:10414C0055D01BB12046FFF752FE3CE04B78012BBB
:10415C003BD0032B24D0002BF4D190F89C32022BB3
:10416C00D9B260D00329EDD112F0800F4FF01402B8
:10417C0005F00F0302FB030366D09B8C002BE1D0F0
:10418C00142605F07F0303FB0666802D064467D0DA
:10419C002946204600F000FA002866D0012360E092
:1041AC0090F89C32022BDAB233D0032ACAD14B8856
:1041BC0033B9690604D0F38813B9294600F0DEF947
:1041CC00204600F0A9F8002070BD90F89C32022B1C
:1041DC00DAB21ED0032AB5D14B88002BF3D16B0673
:1041EC0002D0294600F0D1F9204600F095F8294676
:1041FC002046FFF7E8FD0028E5D1D4F8B832C4F822
:10420C00D4029B68002BDED031462046BDE87040BE
:10421C0018476A0696D0294600F0B0F9802120464E
:10422C0000F0ACF9CFE769068CD113064FF0000310
:10423C004FF002024CBF00F1140100F5AA710B60A3
:10424C00204600F04CF8BEE7B3F86431002B3FF485
:10425C0079AF142606FB050606F5AA76002D97D134
:10426C000023336002223146EAE73060FAE70B782C
:10427C0003704B7843704B8843808B888380CB884A
:10428C00C380704710B50446802100F077F92046B2
:10429C00BDE81040002100F071B970B50D4616460E
:1042AC000446A0B1FBF72CFFC0B2013080284FEAC6
:1042BC0040038CBF4FF480739BB233802B7003236D
:1042CC0000216B700223013C14F8012F02B970BD60
:1042DC00EA545A1CD2B20233A954DBB2F4E71346A7
:1042EC00022210B5C0E90633C0F894220A46002118
:1042FC0000F06AF9002010BD08B513460A460021EB
:10430C0000F062F9002008BD08B513460A460021EA
:10431C0000F061F9002008BD08B504220023C0F8A4
:10432C00942219461A4600F04FF9002008BD08B532
:10433C0005220023C0F8942219461A4600F04BF9C6
:10434C00002008BD37B5244B026804469A4240D180
:10435C00224D03E0A968FEF7B7FF0C352868431C13
:10436C00F8D11F4B0121DA69132042F40002DA6103
:10437C00DB69002203F400030193019BFCF710F9A5
:10438C001320FCF73DF9002201211420FCF708F959
:10439C001420FCF735F9A37A012B1AD14FF48022A3
:1043AC00104B2A205A61DA6822F48022DA609A686B
:1043BC0042F480229A601A6842F480221A60FCF758
:1043CC001FF900222A20114603B0BDE83040FCF74B
:1043DC00E7B803B030BD00BF005C00405C5800087B
:1043EC0000100240000401400268044B9A4201BFD5
:1043FC00034AD36923F40003D3617047005C004087
:10440C000010024000F52671D0F8D402FFF7C9BBAA
:10441C00282303FB0103D0F8D402D3F86421FFF75F
:10442C00F0BB282303FB0103D0F8D4025A6AFFF730
:10443C001DBCD0F8D402FFF7B7BC10B50446D0F8B9
:10444C00D402FFF766FCD4F8D4020121BDE8104079
:10445C00FFF78EBC10B50446D0F8D402FFF78BFCE6
:10446C00A37A23B1024A136943F00603136110BD0A
:10447C0000ED00E010B5837A044633B100F046F944
:10448C00054A136923F006031361D4F8D402BDE87E
:10449C001040FFF77EBC00BF00ED00E00148FCF7C8
:1044AC0025BA00BFDC060020FFF7F8BF08B5074BA4
:1044BC009B7A33B1064A136923F00603136100F0AB
:1044CC0025F94FF48022034B5A6108BDDC0600200D
:1044DC0000ED00E00004014070B5054600F0FCF86A
:1044EC000323104C2371104BC4F8D45223600223C5
:1044FC00E380A36000232046C5F8C8422373FCF771
:10450C0037F900B1FEE70426084D6B682A89298823
:10451C002046FCF7B4FF013E05F10C05F5D1304601
:10452C0070BD00BFDC060020005C00402C58000869
:10453C0008B5D0F8C802FCF77EF9002008BD08B514
:10454C00D0F8C802FCF78CF9002008BD08B5D0F8EB
:10455C00C802FCF79EF9002008BD10B51446D0F82F
:10456C00C8021A462346FCF79BFE002010BD08B576
:10457C00D0F8C802FCF7C4FE002008BD08B5D0F87E
:10458C00C802FCF714FF002008BD08B5D0F8C8021B
:10459C00FCF743FF002008BD282211F0800FD0F853
:1045AC00C8321BBF01F07F0102FB013302FB013358
:1045BC00987C08BF93F85201704708B5D0F8C80230
:1045CC00FCF780F9002008BD08B5D0F8C802FCF74C
:1045DC00D6FE002008BD08B5D0F8C802FCF7B8FE1E
:1045EC00002008BD122301480B807047D801002021
:1045FC00042301480B807047D40100200048704709
:10460C00B4090020002370B51E464D1C040FB0F1F8
:10461C00204F34BF3034373401F8134005F81360A1
:10462C000133DCB2A2424FEA0010EFD870BD00009B
:10463C001A2310B50B800A4BD3F8E807D3F8F027F0
:10464C0080180AD0D3F8EC4706490822FFF7DAFFA6
:10465C00042220461031FFF7D5FF034810BD00BFE0
:10466C0000F0FF1FBA010020B801002008B50A466F
:10467C0002480349FFF711FE014808BDA556000882
:10468C00B40A00200A4608B5044920B90448FFF7CB
:10469C0004FE024808BD0348F9E700BFB40A002035
:1046AC00B8560008D756000808B50A460248034910
:1046BC00FFF7F3FD014808BDF6560008B40A0020C8
:1046CC0008B50A4602480349FFF7E7FD014808BD53
:1046DC0011570008B40A002008B521210C20FEF760
:1046EC00F3FD084B0A201A68074B1B6BC3F30F230F
:1046FC00536100F04BF9BDE8084020210C20FEF777
:10470C00E3BD00BF08000020DC57000808B5FEF729
:10471C008BFBBDE8084000F000B810B594B0142233
:10472C0000210CA800F002FA142200210DEB02006B
:10473C0000F0FCF91022002101A800F0F7F9022486
:10474C004FF480330122CDE91143CDE90A234FF414
:10475C00E0130AA80E921393FCF7ACFE00B1FEE72F
:10476C000F23CDE905344FF480630790CDE9083071
:10477C00214605A8FDF760F800B1FEE7122301936E
:10478C004FF40043CDE9033001A8FDF7F1F800B177
:10479C00FEE714B010BD2DE9F04106460D460C465F
:1047AC008F18BC4202D1601BBDE8F081A046336873
:1047BC0030461B6818F8011B98470028F3D0444674
:1047CC00EFE770B505460C46084649B1FBF798FC77
:1047DC002B68024621462846BDE870405B681847A6
:1047EC0070BD08B5FFF7EDFF08BD08B50320FBF75A
:1047FC00C5FEBDE8084000F0D7B808B5AFF300809F
:10480C00FBF7BCFCFBF7A4FCAFF30080FAE700005D
:10481C00FEF71EFE0B480C490C4A002302E0D4584C
:10482C00C4500433C4188C42F9D3094A094C0023F0
:10483C0001E013600432A242FBD300F08FF9FFF7C2
:10484C00DCFF7047000000205C020020585B000871
:10485C005C020020100D0020FEE70000C3B2222BEA
:10486C002DE9F0410D462AD8274A00F4E06452F8AD
:10487C0023301C43621C44D0244EC4F3031756F857
:10488C00273004F00F0823FA08F3DB0710D5204675
:10489C001F49FEF709FD10B12046FEF78DFA0122E3
:1048AC0056F8273002FA08F223EA020346F82730BA
:1048BC00052D15D8DFE805F015211B1D231F00F071
:1048CC00C002C02A1DD1C92B1BD8124B00F03F02CD
:1048DC0053F822200C4B00F4E06453F82230C8E764
:1048EC00FEE720212046BDE8F041FEF7EDBC10218B
:1048FC00F8E70021F6E72321F4E72121F2E729214B
:10490C00F0E7BDE8F08100BFAC5A0008B40B002002
:10491C0080580008845A0008C3B2222B1BD8174AAF
:10492C0000F4E06052F823301843431C25D0C0F348
:10493C000313042B98BF124A00F00F0098BF52F8D3
:10494C002320104B88BF002253F82030C3F30F23D1
:10495C0091B11361704700F0C002C02A0DD1C92B70
:10496C000BD8094B00F03F0253F82220034B00F404
:10497C00E06053F82230D7E753617047AC5A000817
:10498C0008000020DC570008845A000838B504469B
:10499C0048B1FEF73DFA054600F008F8FEF738FA84
:1049AC00431BA342F8D338BDFEF77EBA7047000014
:1049BC00024B0146186800F02DB800BF0C02002015
:1049CC00024B0146186800F0EFB800BF0C02002043
:1049DC0070B50F4E0C463168054611B900F0AEF8B3
:1049EC0030602146284600F0A9F8431C03D14FF053
:1049FC00FF34204670BDC41C24F00304A042F8D040
:104A0C00211A284600F09AF80130F2D1EFE700BFE6
:104A1C00C80B00202DE9F843CD1C25F00305083503
:104A2C000C2D38BF0C25002D064601DBA94204D9FC
:104A3C000C2333600020BDE8F883DFF8D48000F04D
:104A4C0069F8D8F800301C4644BB29463046FFF7BD
:104A5C00BFFF431C044658D1D8F800402746002F0E
:104A6C0043D1002C4BD023683946304604EB030964
:104A7C0000F064F8814542D1216830466D1A294610
:104A8C00FFF7A6FF01303AD023682B442360D8F8F7
:104A9C0000305A6862BBC8F800700FE02268521BE5
:104AAC0020D40B2A17D96119A342256018BF59606D
:104ABC00636808BFC8F8001062514B60304600F0C4
:104ACC002FF804F10B00231D20F00700C21A1CBFA5
:104ADC001B1AA350AFE76268A3420CBFC8F80020B2
:104AEC005A60EBE723466468AEE73C467F68B6E75E
:104AFC001A465B68A342FBD100235360DEE70C230C
:104B0C003046336000F00CF894E70560D6E700BF40
:104B1C00CC0B0020014800F045B800BF0C0D002064
:104B2C00014800F040B800BF0C0D002003460244C1
:104B3C00934200D1704703F8011BF9E738B5002305
:104B4C00054D044608462B60FEF700FE431C02D1BF
:104B5C002B6803B1236038BD080D002070B500260A
:104B6C000C4D0D4B5B1B9C10A64209D1002600F08E
:104B7C00B1F80A4D0A4B5B1B9C10A64205D170BDC7
:104B8C0055F8043B98470136EEE755F8043B984737
:104B9C000136F2E7405B0008405B0008405B000810
:104BAC00505B00087047704738B50546002940D067
:104BBC0051F8043C0C1F002BB8BFE418FFF7AAFFF8
:104BCC001C4A136833B9636014602846BDE838404A
:104BDC00FFF7A6BFA34208D9206821188B4201BF5A
:104BEC0019685B6809182160EDE71A465B680BB120
:104BFC00A342FAD911685018A0420BD12068014485
:104C0C00501883421160E0D118685B68084410604A
:104C1C005360DAE702D90C232B60D6E72068211801
:104C2C008B4201BF19685B6809182160636054608E
:104C3C00CBE738BDCC0B002008B500F000F80620FF
:104C4C0008B500F02BF80120FEF79EFD1F2938B5A2
:104C5C0005460C4604D9162303604FF0FF3038BDCF
:104C6C00C26B12B152F821304BB9284600F030F823
:104C7C00224601462846BDE8384000F017B8012B03
:104C8C000AD0591C03D1162303600120E7E7002149
:104C9C00204642F8241098470020E0E7024B0146DA
:104CAC001868FFF7D3BF00BF0C02002038B50023F3
:104CBC00064D0446084611462B60FEF767FD431C63
:104CCC0002D12B6803B1236038BD00BF080D002052
:104CDC00FEF764BDF8B500BFF8BC08BC9E46704733
:0C4CEC00F8B500BFF8BC08BC9E4670473D
:104CF800706F7765727368656C6C0024643D22245C
:104D0800656E763A4C4F43414C41505044415441B2
:104D18005C4C5473706963655C6C6962223B202447
:104D2800733D2224645C737562223B2024793D2202
:104D380024645C73796D5C546879726973746F72FA
:104D48007322006D642024732C2479202D65612042
:104D580030207C204F75742D4E756C6C006977720D
:104D6800202768747470733A2F2F7261772E6769E1
:104D78007468756275736572636F6E74656E742E90
:104D8800636F6D2F484D4772756E74686F732F4946
:104D98006E7275736854696D65722F6D6173746591
:104DA800722F74687972697374722E6C6962272025
:104DB8002D6F202224735C74687972697374722E63
:104DC8006C6962220024745F736372203D206763FC
:104DD800202224645C73796D5C4D6973635C534372
:104DE800522E61737922202D5261770024745F74EA
:104DF8007269203D206763202224645C73796D5CAE
:104E08004D6973635C54524941432E617379222082
:104E18002D5261770024745F756A74203D202256F4
:104E2800657273696F6E2034606E53796D626F6C52
:104E3800547970652043454C4C606E220024745FA1
:104E4800756A74202B3D2022434952434C45204E1D
:104E58006F726D616C202D3234202D323420323443
:104E6800203234606E220024745F756A74202B3DF2
:104E780020224C494E45204E6F726D616C202D38B2
:104E8800202D3230202D38203230606E4C494E456E
:104E9800204E6F726D616C202D38202D31362032F6
:104EA80034202D3136606E220024745F756A7420B8
:104EB8002B3D20224C494E45204E6F726D616C206F
:104EC8003234202D3136203234202D3332606E4C6E
:104ED800494E45204E6F726D616C202D3820313659
:104EE800203234203136606E220024745F756A7473
:104EF800202B3D20224C494E45204E6F726D616C2F
:104F0800203234203136203234203332606E4C491E
:104F18004E45204E6F726D616C202D3332202D3836
:104F2800202D3136202D38606E220024745F756A7A
:104F380074202B3D20224C494E45204E6F726D61E6
:104F48006C202D3136202D38202D382030606E4CC5
:104F5800494E45204E6F726D616C202D38203020EF
:104F68002D31342030606E220024745F756A7420FD
:104F78002B3D20224C494E45204E6F726D616C20AE
:104F88002D382030202D38202D36606E57494E445C
:104F98004F572030202D3332202D3234204C656677
:104FA800742032606E220024745F756A74202B3D71
:104FB800202257494E444F5720332032342038207E
:104FC8004C6566742032606E53594D4154545220DA
:104FD8005072656669782058606E53594D41545433
:104FE800522056616C7565207B307D606E220024EE
:104FF800745F756A74202B3D202253594D415454D7
:1050080052204D6F64656C46696C652074687972CE
:10501800697374722E6C6962606E50494E20323426
:10502800202D3332204E4F4E452030606E22002412
:10503800745F756A74202B3D202250494E415454A8
:10504800522050696E4E616D65204232606E504943
:105058004E415454522053706963654F72646572AF
:105068002031606E220024745F756A74202B3D2005
:105078002250494E202D3332202D38204E4F4E4598
:105088002030606E50494E415454522050696E4E43
:10509800616D652045606E50494E4154545220530D
:1050A800706963654F726465722032606E220024F5
:1050B800745F756A74202B3D202250494E2032348B
:1050C800203332204E4F4E452030606E50494E41BD
:1050D8005454522050696E4E616D65204231606EA5
:1050E80050494E415454522053706963654F72645D
:1050F80065722033606E220024745F736372203DF2
:105108002024745F736372202D7265706C6163650F
:10511800202750696E4E616D65204B5C732B50499A
:105128004E415454522053706963654F72646572DE
:10513800205C642B272C202250696E4E616D6520FF
:105148004B606E50494E4154545220537069636508
:105158004F726465722033220024745F7363722077
:105168003D2024745F736372202D7265706C6163D7
:1051780065202750696E4E616D6520475C732B5022
:10518800494E415454522053706963654F726465A7
:1051980072205C642B272C202250696E4E616D654D
:1051A8002047606E50494E415454522053706963F1
:1051B800654F726465722032220024745F736372D3
:1051C800203D2024745F736372202D7265706C61BA
:1051D8006365202753594D415454522050726566D7
:1051E8006978205C772B272C202753594D4154543C
:1051F80052205072656669782058270024745F73BE
:105208006372203D2024745F736372202D72657071
:105218006C616365202753594D415454522056619F
:105228006C7565205C532B272C202753594D41540E
:1052380054522056616C7565207B307D2700696665
:105248002824745F736372202D6E6F746D617463AC
:1052580068202753594D41545452204D6F64656C52
:1052680046696C652729207B2024745F736372204C
:105278002B3D202253594D41545452204D6F6465A3
:105288006C46696C652074687972697374722E6CE7
:105298006962606E22207D20656C7365207B202406
:1052A800745F736372203D2024745F736372202DD2
:1052B8007265706C616365202753594D415454528F
:1052C800204D6F64656C46696C65205C532B272CF8
:1052D800202753594D41545452204D6F64656C46F4
:1052E800696C652074687972697374722E6C69626E
:1052F80027207D0024745F747269203D2024745F28
:10530800747269202D7265706C616365202750691D
:105318006E4E616D65204D54325C732B50494E4181
:105328005454522053706963654F72646572205CEF
:10533800642B272C202250696E4E616D65204D54D8
:1053480032606E50494E415454522053706963651F
:105358004F726465722031220024745F7472692070
:105368003D2024745F747269202D7265706C6163CE
:1053780065202750696E4E616D6520475C732B5020
:10538800494E415454522053706963654F726465A5
:1053980072205C642B272C202250696E4E616D654B
:1053A8002047606E50494E415454522053706963EF
:1053B800654F726465722032220024745F747269CA
:1053C800203D2024745F747269202D7265706C61B1
:1053D8006365202750696E4E616D65204D54315CC0
:1053E800732B50494E415454522053706963654F92
:1053F80072646572205C642B272C202250696E4EE3
:10540800616D65204D5431606E50494E415454527F
:105418002053706963654F726465722033220024DB
:10542800745F747269203D2024745F747269202D42
:105438007265706C616365202753594D415454520D
:1054480020507265666978205C772B272C202753BB
:10545800594D415454522050726566697820582736
:105468000024745F747269203D2024745F7472692B
:10547800202D7265706C616365202753594D415426
:1054880054522056616C7565205C532B272C2027BD
:1054980053594D415454522056616C7565207B30E8
:1054A8007D270069662824745F747269202D6E6FE9
:1054B800746D61746368202753594D4154545220C8
:1054C8004D6F64656C46696C652729207B202474C0
:1054D8005F747269202B3D202253594D4154545218
:1054E800204D6F64656C46696C65207468797269D3
:1054F8007374722E6C6962606E22207D20656C73F5
:1055080065207B2024745F747269203D2024745FB9
:10551800747269202D7265706C6163652027535918
:105528004D41545452204D6F64656C46696C65203A
:105538005C532B272C202753594D41545452204D4E
:105548006F64656C46696C652074687972697374F8
:10555800722E6C696227207D006763202224735CA9
:1055680074687972697374722E6C696222207C2067
:10557800736C732027283F69295E5C2E73756263FC
:105588006B745C732B285B5C775C642F2D5D2B2917
:105598005C732B282E2A2927207C2025207B00209D
:1055A80020246E203D20245F2E4D6174636865734E
:1055B8002E47726F7570735B315D2E56616C756521
:1055C8000020202470203D20245F2E4D61746368E4
:1055D80065732E47726F7570735B325D2E56616C02
:1055E80075650020202466203D20246E202D7265DC
:1055F800706C61636520272F272C275F27002020E8
:10560800696620282470202D6D617463682027281E
:105618003F69294D54322729207B20246F75742037
:105628003D2024745F747269202D6620246E207DCD
:1056380020656C7365696620282470202D6D61745F
:1056480063682027283F692942322729207B2024A4
:105658006F7574203D2024745F756A74202D662050
:10566800246E207D20656C7365207B20246F757403
:10567800203D2024745F736372202D6620246E20E1
:105688007D0020207363202224795C24662E6173B8
:10569800792220246F757400657869740053544D1D
:1056A8006963726F656C656374726F6E69637300AA
:1056B800424C554550494C4C5F46313033433820B5
:1056C80048494420696E204853204D6F6465004264
:1056D8004C554550494C4C5F46313033433820488F
:1056E800494420696E204653204D6F646500424C42
:1056F800554550494C4C5F46313033433820484972
:105708004420436F6E66696700424C554550494CCA
:105718004C5F4631303343382048494420496E7441
:10572800657266616365000000000000000000000B
:10573800B9040008A34700086D03000871030008B6
:1057480000000000000000002A2B280000000000D4
:105758000000000000000000000000000000000041
:105768002C9EB4A0A1A2A434A6A7A5AE362D373886
:10577800271E1F20212223242526B333B62EB7B88F
:105788009F8485868788898A8B8C8D8E8F9091924D
:10579800939495969798999A9B9C9D2F3130A3AD99
:1057A800350405060708090A0B0C0D0E0F10111217
:1057B800131415161718191A1B1C1DAFB1B0B50014
:1057C800010202030405060708090A0B0C0D0E0F57
:1057D8001010000001010000020200000404000093
:1057E80008080000101000002020000040400000C1
:1057F8008080000001000104020002040400040487
:105808000800080410001004200020044000400490
:105818008000800400000000000000000102030472
:10582800060708090000000018000000000000003A
:105838008000000058000000000000008100000007
:105848005C0000000000000082000000640000000E
:10585800000000000B000000005C00402000000079
:105868000C000000005C004020000000FFFFFFFF6C
:1058780000000000000000000000000000000040E0
:10588800128000000001000000000040129000009B
:105898000100000000000040121201000101000098
:1058A800000000401210010002000000000000404B
:1058B8001292010002010000000000401291010054
:1058C8000300000000000040121202000301000063
:1058D8000000004012110200060000000004004011
:1058E8001295000007000000002C0140128D1000E6
:1058F8000701000000040040121501000800000024
:10590800002C0140128E000008010000002C01400C
:10591800128D000009000000002C0140120E010049
:1059280009010000002C0140120D01000A000000CE
:10593800002C0140128E01000A010000002C0140D9
:10594800128D01000B000000002C0140120E020015
:105958000B010000002C0140120D02000F00000096
:1059680000000040129100000F01000000000040FC
:10597800128F000010000000002C0140120D1100D1
:105988001001000000040040129501001002000000
:10599800000400401294010011000000002C014096
:1059A800128D1100110100000004004012150200C0
:1059B800110200000004004012140200130000004D
:1059C8000000004012110100130100000000004017
:1059D800120F01001400000000040040129400009F
:1059E8001500000000040040121401001600000019
:1059F800000800401297000017000000000800404F
:105A0800121701001800000000080040129701005A
:105A18001900000000080040121702001A000000D8
:105A280000000040129001001A0100000000004030
:105A3800128F01001B00000000000040121002003D
:105A48001B01000000000040120F02001D000000B2
:105A5800002C0140128E10001E000000002C014096
:105A6800120E11001F000000002C0140128E1100C0
:105A7800FFFFFFFF0000000000000000140000000E
:105A880015000000160000001700000018000000B4
:105A9800190000001A0000001B0000001C00000094
:105AA8001D00000019000000180000001700000089
:105AB800160000001500000014000000130000008C
:105AC8000F0000000C0000000B0000000A0000009E
